:100000000C9462000C948A000C948A000C948A0070
:100010000C948A000C948A000C948A000C948A0038
:100020000C948A000C948A000C948A000C948A0028
:100030000C948A000C948A000C948A000C948A0018
:100040000C9413030C948A000C94E1020C94BB02F0
:100050000C948A000C948A000C948A000C948A00F8
:100060000C948A000C948A000000000024002700F1
:100070002A0000000000250028002B0000000008D6
:10008000000201000003040700000000000000005F
:1000900000000000230026002900040404040404D6
:1000A0000404020202020202030303030303010227
:1000B00004081020408001020408102001020408F6
:1000C00010201C0511241FBECFEFD8E0DEBFCDBF2E
:1000D00011E0A0E0B1E0E0E5FBE002C005900D9288
:1000E000AE31B107D9F721E0AEE1B1E001C01D9218
:1000F000A43CB207E1F710E0C2E6D0E004C02197CB
:10010000FE010E948A05C136D107C9F70E94A203E9
:100110000C94A6050C940000AF92BF92CF92DF9290
:10012000EF92FF920F931F93CF93DF936C017B01AC
:100130008B01040F151FEB015E01AE18BF08C0173D
:10014000D10759F06991D601ED91FC910190F081B0
:10015000E02DC6010995892B79F7C501DF91CF9173
:100160001F910F91FF90EF90DF90CF90BF90AF90D5
:100170000895FC01538D448D252F30E0842F90E0AD
:10018000821B930B541710F0CF9608950197089592
:10019000FC01918D828D981761F0A28DAE0FBF2F5B
:1001A000B11D5D968C91928D9F5F9F73928F90E0B1
:1001B00008958FEF9FEF0895FC01918D828D981720
:1001C00031F0828DE80FF11D858D90E008958FEF5D
:1001D0009FEF0895FC01918D228D892F90E0805C26
:1001E0009F4F821B91098F739927089587E291E0B1
:1001F0000E94EA0021E0892B09F420E0822F089573
:1002000080E090E0892B29F00E94F60081110C9487
:1002100000000895FC01A48DA80FB92FB11DA35AA9
:10022000BF4F2C91848D90E001968F739927848F16
:10023000A689B7892C93A089B1898C918370806439
:100240008C93938D848D981306C00288F389E02DDA
:1002500080818F7D80830895EF92FF920F931F938B
:10026000CF93DF93EC0181E0888F9B8D8C8D981369
:100270001AC0E889F989808185FF15C09FB7F89475
:10028000EE89FF896083E889F989808183708064C1
:1002900080839FBF81E090E0DF91CF911F910F910C
:1002A000FF90EF900895F62E0B8D10E00F5F1F4F1B
:1002B0000F731127E02E8C8D8E110CC00FB607FC2A
:1002C000FACFE889F989808185FFF5CFCE010E94B8
:1002D0000A01F1CFEB8DEC0FFD2FF11DE35AFF4F1B
:1002E000F0829FB7F8940B8FEA89FB898081806246
:1002F000CFCFCF93DF93EC01888D8823B9F0AA8903
:10030000BB89E889F9898C9185FD03C0808186FDD0
:100310000DC00FB607FCF7CF8C9185FFF2CF80811F
:1003200085FFEDCFCE010E940A01E9CFDF91CF9189
:100330000895833081F028F4813099F08230A9F05B
:1003400008958730A9F08830C9F08430B1F48091E5
:1003500080008F7D03C0809180008F778093800024
:10036000089584B58F7784BD089584B58F7DFBCFC4
:100370008091B0008F778093B00008958091B00095
:100380008F7DF9CF1F93CF93DF93282F30E0F901B2
:10039000E458FF4F8491F901E255FF4FD491F901E0
:1003A000E656FF4FC491CC23A9F0162F81110E946D
:1003B0009901EC2FF0E0EE0FFF1FEE58FF4FA591D3
:1003C000B4918FB7F894EC91111108C0D095DE2349
:1003D000DC938FBFDF91CF911F910895DE2BF8CF73
:1003E000CF93DF9390E0FC01E255FF4F24918656B6
:1003F0009F4FFC0184918823C9F090E0880F991FDA
:10040000FC01E859FF4FA591B491FC01EE58FF4F54
:10041000C591D49161110DC09FB7F8948C9120952E
:1004200082238C938881282328839FBFDF91CF91DB
:100430000895623051F49FB7F8943C91822F8095D3
:1004400083238C93E8812E2BEFCF8FB7F894EC9118
:100450002E2B2C938FBFEACF87E291E00E94EA0017
:10046000892BD1F387E291E00E94C800815691095F
:100470000895CF93C82F0E942C026C2FCF910C941B
:10048000F0018F929F92AF92BF920F931F93CF93E1
:10049000DF93CDB7DEB7A1970FB6F894DEBF0FBEDE
:1004A000CDBF19A2423008F44AE08E010F5D1F4F04
:1004B000842E912CB12CA12CA50194010E944905F8
:1004C000E62FB901CA01EA3044F5E05DD801EE93A8
:1004D0008D01232B242B252B79F790E080E01097BA
:1004E00069F0FD0101900020E9F73197AF014A1B47
:1004F0005B0BBD0187E291E00E948C00A1960FB6D4
:10050000F894DEBF0FBECDBFDF91CF911F910F9149
:10051000BF90AF909F908F900895E95CD7CFCF9216
:10052000DF92EF92FF92CF93DF9397FF1BC06B0197
:100530007C016DE287E291E00E942C01EC016627CC
:100540007727CB016C197D098E099F094AE00E942B
:1005500041028C0F9D1FDF91CF91FF90EF90DF90B4
:10056000CF9008954AE0DF91CF91FF90EF90DF9018
:10057000CF900C9441021F920F920FB60F9211244C
:100580002F933F934F935F936F937F938F939F939B
:10059000AF93BF93EF93FF9387E291E00E940A012C
:1005A000FF91EF91BF91AF919F918F917F916F914B
:1005B0005F914F913F912F910F900FBE0F901F9021
:1005C00018951F920F920FB60F9211242F938F93AD
:1005D0009F93EF93FF93E0913701F0913801808171
:1005E000E0913D01F0913E0182FD1BC09081809120
:1005F00040018F5F8F7320914101821741F0E0919C
:100600004001F0E0E95DFE4F958F80934001FF913E
:10061000EF919F918F912F910F900FBE0F901F9090
:1006200018958081F4CF1F920F920FB60F9211246C
:100630002F933F938F939F93AF93BF938091230109
:1006400090912401A0912501B091260130912201C1
:1006500023E0230F2D3758F50196A11DB11D2093DE
:1006600022018093230190932401A0932501B0934C
:10067000260180911E0190911F01A0912001B0914F
:1006800021010196A11DB11D80931E0190931F01B0
:10069000A0932001B0932101BF91AF919F918F91C1
:1006A0003F912F910F900FBE0F901F90189526E845
:1006B000230F0296A11DB11DD2CFCF92DF92EF92F0
:1006C000FF920F931F93E82FF92F05C001501109D6
:1006D0002109310961F1908196239417B9F305C07E
:1006E000015011092109310911F1908196239413C8
:1006F000F7CFC12CD12CE12CF12C0AC08FEFC81AF6
:10070000D80AE80AF80A0C151D052E053F0579F0F0
:1007100080818623841791F36C2D7D2D8E2D9F2D46
:100720001F910F91FF90EF90DF90CF90089560E0C0
:1007300070E080E090E01F910F91FF90EF90DF90CC
:10074000CF900895789484B5826084BD84B581602B
:1007500084BD85B5826085BD85B5816085BD80918C
:100760006E00816080936E00109281008091810004
:1007700082608093810080918100816080938100FC
:10078000809180008160809380008091B1008460BE
:100790008093B1008091B00081608093B00080911F
:1007A0007A00846080937A0080917A0082608093DE
:1007B0007A0080917A00816080937A0080917A003B
:1007C000806880937A001092C100E0913701F09127
:1007D000380182E08083E0913301F091340110828E
:1007E000E0913501F091360180E1808310923F0164
:1007F000E0913B01F0913C0186E08083E09139017A
:10080000F0913A01808180618083E0913901F0911B
:100810003A01808188608083E0913901F0913A014A
:10082000808180688083E0913901F0913A01808174
:100830008F7D808323E0E22EF12C3FE0C32ED12C6C
:100840004DE1442E512C612C712C50E0A52E50E02E
:10085000B52E87E291E00E94EA00892B09F4E0C0FE
:1008600087E291E00E94C800815691098631910586
:1008700008F05EC0FC01E15CFB4F0C948A05550456
:10088000980498049804980498049804A704AB0466
:1008900098049804A10498049804B004B30498043C
:1008A000720498049804B60403050E942C028E304A
:1008B00008F08E508770806480937C0080917A006D
:1008C000806480937A0080917A0086FDFCCF6091ED
:1008D000780070917900072E000C880B990B0E940C
:1008E0008F0226C00E942C029C013327F901E45894
:1008F000FF4F8491F901E255FF4FC491F901E6568B
:10090000FF4FD491DD2379F081110E949901ED2FE1
:10091000F0E0EE0FFF1FE057FF4FA591B491EC916F
:10092000CE2368E609F46CE687E291E00E942C0190
:1009300041E050E06BE171E087E291E00E948C00C1
:1009400088CF0E942C0260E00E94C201F1CF0E9479
:100950002C0261E0F9CF90E080E00E943902E8CFFC
:1009600081E090E0FACF82E090E0F7CF0E942C0285
:10097000182F0E942C02EC0161E0812F0E94F001EF
:1009800060E08C2F0E94F00160E0812F0E94C20184
:10099000C7010197F1F761E0812F0E94C201C601F2
:1009A0000197F1F760E0812F0E94C201DD27FE016F
:1009B000E255FF4F6491FE01E656FF4FE491F0E0EF
:1009C000EE0FFF1FE057FF4F8591949100E61AEE5E
:1009D00020E030E0462F0E945D036115710581051E
:1009E000910529F06F5F7F4F8F4F9F4F9F70DB0105
:1009F00025E030E00E949005A30192010E946B0562
:100A0000CA01B9016CCF48E050E062E171E087E2D1
:100A100091E00E948C0062E070E080E090E05FCFA7
:100A2000A114B10409F415CF0E94F600882309F43B
:100A300010CF0E9400000DCFE7E2F1E01382128296
:100A400088EE93E0A0E0B0E084839583A683B7832B
:100A500084E091E09183808385EC90E095878487A2
:100A600084EC90E09787868780EC90E0918B808B78
:100A700081EC90E0938B828B82EC90E0958B848B61
:100A800086EC90E0978B868B118E128E138E148ECF
:100A90000895A1E21A2EAA1BBB1BFD010DC0AA1FBF
:100AA000BB1FEE1FFF1FA217B307E407F50720F0D7
:100AB000A21BB30BE40BF50B661F771F881F991F52
:100AC0001A9469F760957095809590959B01AC019B
:100AD000BD01CF010895052E97FB1EF400940E94DE
:100AE000820557FD07D00E94490507FC03D04EF44C
:100AF0000C94820550954095309521953F4F4F4F6E
:100B00005F4F089590958095709561957F4F8F4FB9
:100B10009F4F0895EE0FFF1F0590F491E02D09946B
:100B20000E949705B7FF0895821B930B0895A29F1B
:100B3000B001B39FC001A39F700D811D1124911DB1
:100B4000B29F700D811D1124911D0895F894FFCF5F
:100B5000000000002C018C00B9007901EA00C800F7
:0E0B6000DC0053526475696E6F3A000A0000A3
:00000001FF
