:100000000C9464000C948C000C948C000C948C0068
:100010000C948C000C948C000C948C000C948C0030
:100020000C948C000C948C000C948C000C948C0020
:100030000C948C000C948C000C948C000C948C0010
:100040000C94D10C0C948C000C94A10A0C94E40A2E
:100050000C948C000C948C000C948C000C948C00F0
:100060000C948C000C948C0000000007000201002E
:100070000003040600000000000000000102040864
:100080001020408001020408102001020408102002
:10009000040404040404040402020202020203032E
:1000A00003030303000000002300260029000000D2
:1000B0000000250028002B0000000000240027007D
:1000C0002A00A916AE16D51611241FBECFEFD8E010
:1000D000DEBFCDBF13E0A0E0B1E0E8E0FAE302C08C
:1000E00005900D92A235B107D9F714E0A2E5B3E06F
:1000F00001C01D92A033B107E1F710E0C4E6D0E0E3
:1001000004C02197FE010E944617C136D107C9F7E6
:100110000E94C8160C94021D0C94000040E05BE4A1
:1001200060E070E088E793E00E94630B67E071E0B5
:1001300088E793E00E94AC0760E271E088E793E013
:100140000C94AC074F925F926F927F92AF92BF92E6
:10015000CF92DF92EF92FF920F931F93CF93DF9393
:10016000CDB7DEB728970FB6F894DEBF0FBECDBF70
:1001700029013A01ED82FE820F8318870E944C17F5
:1001800069837A838B839C83A6019501698D7A8D1F
:100190008B8D9C8D0E944C179B01AC0169817A81EB
:1001A0008B819C810E94041969837A838B839C8351
:1001B000A3019201C801B7010E944C179B01AC0139
:1001C00069817A818B819C810E94B517A601950176
:1001D0000E944D1728960FB6F894DEBF0FBECDBF14
:1001E000DF91CF911F910F91FF90EF90DF90CF9013
:1001F000BF90AF907F906F905F904F900895BC013B
:10020000882777FD8095982F0E94501820E030E0D5
:1002100040EA50E40E94041920E030EC4FE754E437
:100220000E94B51720E030E0A9010E944D17089503
:1002300083E090E090937303809372038091720344
:10024000909173030D97E4F462E471E088E793E022
:100250000E94610760917203709173034AE050E05D
:1002600088E793E00E94820864E571E088E793E004
:100270000E94610780917203909173030196DACF17
:1002800088E793E00C9474078FE090E090937303F9
:100290008093720380917203909173034497F4F4F6
:1002A00062E471E088E793E00E9461076091720365
:1002B000709173036E5071094AE050E088E793E053
:1002C0000E94820864E571E088E793E00E9461077C
:1002D00080917203909173030196D8CF88E793E0E1
:1002E0000C9474078EE090E09093730380937203F4
:1002F00080917203909173034497F4F462E471E087
:1003000088E793E00E946107609172037091730324
:100310006E5071094AE050E088E793E00E9482083D
:1003200064E571E088E793E00E94610780917203C1
:10033000909173030196D8CF88E793E00C947407EB
:10034000109253031092520383E090E09093730352
:100350008093720380917203909173030D97F4F46C
:10036000809152039091530301969093530380938D
:100370005203FC01EC5AFC4F8081813019F467E490
:1003800071E002C06FE471E088E793E00E946107CA
:1003900080917203909173030196D8CF88E793E020
:1003A0000C94740710925303109252038FE090E064
:1003B00090937303809372038091720390917303FF
:1003C0004497F4F4809152039091530301969093D3
:1003D000530380935203FC01EC5AFC4F808181301F
:1003E00019F467E471E002C06FE471E088E793E01C
:1003F0000E94610780917203909173030196D8CF98
:1004000088E793E00C947407CF92DF92EF92FF920B
:10041000CF93DF93109269031092680388E793E00B
:100420000E94740767E571E088E793E00E94AC07DB
:100430006AE671E088E793E00E94AC078EE00E94D4
:10044000780E90936F0380936E030E94FF00609379
:100450006A0370936B0380936C0390936D0366E85B
:1004600071E088E793E00E94610740916A03509130
:100470006B0360916C0370916D0322E030E088E7BC
:1004800093E00E94F309C0906A03D0906B03E09060
:100490006C03F0906D0323E333E343E150E4C701C1
:1004A000B6010E94001918166CF420E030E040E21A
:1004B00050E4C701B6010E94B11787FF03C063E98A
:1004C00071E00BC08091680390916903019690934D
:1004D0006903809368036CE971E088E793E00E9408
:1004E000AC0788E793E00E9474076DEB71E088E742
:1004F00093E00E94AC0761E082E00E94E00D60E0C2
:1005000082E00E941C0E10925303109252030E942C
:10051000180183E090E090937303809372038091BD
:100520007203909173038D3091050CF079C0209186
:100530005203309153032F5F3F4F30935303209367
:10054000520361E00E94E00D61E0809172030E941D
:100550001C0E6AE070E080E090E00E944C0D8EE09E
:100560000E94780E90936F0380936E030E94FF00A9
:1005700060936A0370936B0380936C0390936D0395
:1005800060E0809172030E94E00D40916A035091F7
:100590006B0360916C0370916D0322E030E088E79B
:1005A00093E00E94F30963E571E088E793E00E941D
:1005B0006107C0906A03D0906B03E0906C03F090E9
:1005C0006D0323E333E343E150E4C701B6010E9426
:1005D0000019C0915203D0915303181674F42DECF6
:1005E0003CEC4CE250E4C701B6010E94B11787FF12
:1005F00004C0CC5ADC4F18820DC0809168039091E2
:10060000690301969093690380936803CC5ADC4F89
:1006100081E08883809172039091730301967BCF70
:1006200088E793E00E9474070E94A00164EE71E0E5
:1006300088E793E00E94AC0761E082E00E94E00D51
:1006400061E082E00E941C0E10925303109252034C
:100650000E94180183E090E09093730380937203EB
:1006600080917203909173038D3091050CF079C0E5
:1006700020915203309153032F5F3F4F3093530328
:100680002093520361E00E94E00D60E080917203CC
:100690000E941C0E6AE070E080E090E00E944C0D29
:1006A0008EE00E94780E90936F0380936E030E94F9
:1006B000FF0060936A0370936B0380936C039093C5
:1006C0006D0360E0809172030E94E00D40916A0327
:1006D00050916B0360916C0370916D0322E030E0E8
:1006E00088E793E00E94F30963E571E088E793E00F
:1006F0000E946107C0906A03D0906B03E0906C0386
:10070000F0906D0323E333E343E150E4C701B60106
:100710000E940019C0915203D0915303181674F42B
:100720002DEC3CEC4CE250E4C701B6010E94B1173D
:1007300087FF04C0CC5ADC4F18820DC0809168033B
:100740009091690301969093690380936803CC5A52
:10075000DC4F81E08883809172039091730301964E
:100760007BCF88E793E00E9474070E94A00188E78E
:1007700093E00E94740769E072E088E793E00E94CA
:10078000AC0761E082E00E94E00D60E082E00E9440
:100790001C0E0E9444018FE090E0909373038093BD
:1007A00072038091720390917303843191050CF070
:1007B0006FC061E00E94E00D61E0809172030E94D1
:1007C0001C0E6AE070E080E090E00E944C0D8EE02C
:1007D0000E94780E90936F0380936E030E94FF0037
:1007E00060936A0370936B0380936C0390936D0323
:1007F00060E0809172030E94E00D40916A03509185
:100800006B0360916C0370916D0322E030E088E728
:1008100093E00E94F30963E571E088E793E00E94AA
:100820006107C0906A03D0906B03E0906C03F09076
:100830006D0323E333E343E150E4C701B6010E94B3
:100840000019C0915203D0915303181674F42DEC83
:100850003CEC4CE250E4C701B6010E94B11787FF9F
:1008600004C0CC5ADC4F18820DC08091680390916F
:10087000690301969093690380936803CC5ADC4F17
:1008800081E088838091720390917303019685CFF4
:1008900088E793E00E9474070E94D2016FE272E041
:1008A00088E793E00E94AC0761E082E00E94E00DDF
:1008B00061E082E00E941C0E0E9444018FE090E003
:1008C00090937303809372038091720390917303EA
:1008D000843191050CF06FC061E00E94E00D60E092
:1008E000809172030E941C0E6AE070E080E090E04C
:1008F0000E944C0D8EE00E94780E90936F038093BF
:100900006E030E94FF0060936A0370936B038093F1
:100910006C0390936D0360E0809172030E94E00D80
:1009200040916A0350916B0360916C0370916D0369
:1009300022E030E088E793E00E94F30963E571E08C
:1009400088E793E00E946107C0906A03D0906B0330
:10095000E0906C03F0906D0323E333E343E150E454
:10096000C701B6010E940019C0915203D0915303F0
:10097000181674F42DEC3CEC4CE250E4C701B601BF
:100980000E94B11787FF04C0CC5ADC4F18820DC0FB
:100990008091680390916903019690936903809315
:1009A0006803CC5ADC4F81E0888380917203909178
:1009B0007303019685CF88E793E00E9474070E9435
:1009C000D20188E793E00E94740763E572E088E74C
:1009D00093E00E94AC0761E082E00E94E00D61E0DC
:1009E00082E00E941C0E61E083E00E94E00D60E066
:1009F00083E00E941C0E0E9472018EE090E09093B2
:100A000071038093700380917003909171034497F8
:100A100064F56AE070E080E090E00E944C0D809107
:100A200070030E94780E90936F0380936E030E9470
:100A3000FF00AB01BC0140936A0350936B036093CA
:100A40006C0370936D0322E030E088E793E00E942E
:100A5000F30963E571E088E793E00E946107809104
:100A60007003909171030196CACF88E793E00E94CA
:100A7000740788E793E00E9474076AE872E088E7E9
:100A800093E00E94AC0761E084E00E94E00D61E029
:100A900084E00E941C0E0E9472018EE090E0909310
:100AA0007103809370038091700390917103449758
:100AB00064F56AE070E080E090E00E944C0D809167
:100AC00070030E94780E90936F0380936E030E94D0
:100AD000FF00AB01BC0140936A0350936B0360932A
:100AE0006C0370936D0322E030E088E793E00E948E
:100AF000F30963E571E088E793E00E946107809164
:100B00007003909171030196CACF88E793E00E9429
:100B1000740788E793E00E94740761EC72E088E74D
:100B200093E00E94AC0761E084E00E94E00D60E089
:100B300084E00E941C0E0E9472018EE090E090936F
:100B400071038093700380917003909171034497B7
:100B500064F56AE070E080E090E00E944C0D8091C6
:100B600070030E94780E90936F0380936E030E942F
:100B7000FF00AB01BC0140936A0350936B03609389
:100B80006C0370936D0322E030E088E793E00E94ED
:100B9000F30963E571E088E793E00E9461078091C3
:100BA0007003909171030196CACF60E082E00E94C9
:100BB000E00D60E083E00E94E00D60E084E00E94D0
:100BC000E00D85B7806185BF88E793E00E947407D8
:100BD00068EF72E088E793E00E94AC0780916803B9
:100BE0009091690318161906D4F466E073E088E75B
:100BF00093E00E94610760916803709169034AE085
:100C000050E088E793E00E9482086EE173E088E795
:100C100093E00E94610742E366E970E003C044E0AC
:100C200060EA7FE084E793E00E94480688E793E06B
:100C3000DF91CF91FF90EF90DF90CF900C947407ED
:100C4000FC01862F6183108261E00C94E00DFC01B1
:100C500080810895CF93DF93EC0161E089810E9448
:100C60001C0E81E08883DF91CF910895CF93DF93AD
:100C7000EC0160E089810E941C0E1882DF91CF9107
:100C80000895FC01208121110C9436060C942A064B
:100C9000BF92CF92DF92EF92FF920F931F93CF9369
:100CA000DF931F92CDB7DEB78C016B01D694C7944A
:100CB000E12CF12CB12CB41691F0C80149830E94AB
:100CC0004106C701B6010E944C0DC8010E944106B1
:100CD000C701B6010E944C0DB3944981ECCF0F902F
:100CE000DF91CF911F910F91FF90EF90DF90CF9008
:100CF000BF9008951F93CF93DF93EC01162F70E000
:100D000089810E94950E17FD02C0188202C081E001
:100D10008883DF91CF911F910895CF92DF92EF9258
:100D2000FF920F931F93CF93DF938C01CB0163E36B
:100D300070E00E9410176B01E12CF12CC0E0D0E0B4
:100D4000BE01F80181810E94950EC701B6010E9483
:100D50004C0D2596CF3FD10599F7C801DF91CF9172
:100D60001F910F91FF90EF90DF90CF900C942A0687
:100D7000CF92DF92EF92FF920F931F93CF93DF9367
:100D80008C01CB0163E370E00E9410176B01E12C32
:100D9000F12CCFEFD0E0BE01F80181810E94950EC9
:100DA000C701B6010E944C0D2597A9F7C801DF9134
:100DB000CF911F910F91FF90EF90DF90CF900C9407
:100DC0003606CF92DF92EF92FF920F931F93CF934D
:100DD000DF936C01EB017B01E40EF51E00E010E0F7
:100DE000CE15DF0561F06991D601ED91FC9101907E
:100DF000F081E02DC6010995080F191FF1CFC80138
:100E0000DF91CF911F910F91FF90EF90DF90CF90E6
:100E10000895EF92FF920F931F93CF93DF937C017E
:100E2000FB0100E010E06491EF012196662361F080
:100E3000D701ED91FC910190F081E02DC70109955A
:100E4000080F191FFE01EFCFC801DF91CF911F914D
:100E50000F91FF90EF900895AF92BF92CF92DF92E3
:100E6000EF92FF920F931F93CF93DF936C017B015F
:100E7000C0E0D0E000E010E0D70114968D919C9185
:100E80001597C817D90788F4D601ED91FC91A08079
:100E9000B180BE01C7010E94A013682FC601F501F1
:100EA0000995080F191F2196E7CFC801DF91CF914F
:100EB0001F910F91FF90EF90DF90CF90BF90AF9078
:100EC00008950C94B316DC01ED91FC910190F08132
:100ED000E02D0994DB01ED91FC9111970190F081D7
:100EE000E02DBC01CD0109940F931F93CF93DF93A5
:100EF000EC016DE00E9463078C016AE0CE010E9464
:100F00006307800F911FDF91CF911F910F9108957B
:100F10000F931F93CF93DF93EC010E9409078C017D
:100F2000CE010E947407800F911FDF91CF911F9116
:100F30000F9108950F931F93CF93DF93EC010E94BD
:100F40002C078C01CE010E947407800F911FDF9146
:100F5000CF911F910F9108950F931F93CF93DF931C
:100F6000EC010E94B3168C01CE010E947407800F21
:100F7000911FDF91CF911F910F9108950F931F93B0
:100F8000CF93DF93EC010E9463078C01CE010E9496
:100F90007407800F911FDF91CF911F910F910895DA
:100FA0000F931F93CF93DF93EC010E946A078C018C
:100FB000CE010E947407800F911FDF91CF911F9186
:100FC0000F9108958F929F92AF92BF92CF92DF922E
:100FD000EF92FF920F931F93CF93DF93CDB7DEB7BE
:100FE000A1970FB6F894DEBF0FBECDBF6C01142FD2
:100FF000E52FCB01022F19A2223008F40AE07E016E
:1010000021E2E20EF11C802E912CA12CB12C612F3B
:101010007E2FA50194010E942417029F101911240C
:1010200081E0E81AF1081A3014F4105D01C0195C6F
:10103000F7011083122FE32FCA01232B242B252B1A
:1010400031F7B701C6010E94B316A1960FB6F89406
:10105000DEBF0FBECDBFDF91CF911F910F91FF90EB
:10106000EF90DF90CF90BF90AF909F908F900895BA
:10107000CF92DF92EF92FF920F931F93CF93DF9364
:10108000EC016A017B012115310579F4E881F981D0
:101090000190F081E02D642FDF91CF911F910F918E
:1010A000FF90EF90DF90CF9009942A303105E9F45A
:1010B00077FF1AC06DE20E9463078C014427552711
:1010C000BA014C195D096E097F092AE0CE010E9420
:1010D000E207800F911FDF91CF911F910F91FF9039
:1010E000EF90DF90CF9008952AE0B701A601CE01DE
:1010F000DF91CF911F910F91FF90EF90DF90CF90F4
:101100000C94E2079A01AB01662757FD6095762F94
:101110000C9438080F931F93CF93DF93EC019A013F
:10112000AB01662757FD6095762F0E9438088C0129
:10113000CE010E947407800F911FDF91CF911F9104
:101140000F9108950F931F93CF93DF93EC010E94AB
:1011500038088C01CE010E947407800F911FDF9127
:10116000CF911F910F9108952115310541F4DC01B4
:10117000ED91FC910190F081E02D642F09940C9485
:10118000E2079A01462F50E060E070E00C94B4084A
:101190000F931F93CF93DF93EC019A01462F50E0FA
:1011A00060E070E00E94B4088C01CE010E947407D8
:1011B000800F911FDF91CF911F910F9108959A0198
:1011C000AB0160E070E00C94B4080F931F93CF93D1
:1011D000DF93EC019A01AB0160E070E00E94B4087B
:1011E0008C01CE010E947407800F911FDF91CF9177
:1011F0001F910F9108950F931F93CF93DF93EC01ED
:101200000E94B4088C01CE010E947407800F911FC8
:10121000DF91CF911F910F9108954F925F926F923E
:101220007F928F929F92AF92BF92CF92DF92EF9276
:10123000FF92CF93DF93EC016A017B01B22E9A01FA
:10124000AB01C701B6010E946719882319F063E357
:1012500073E027C026013701E89477F82FEF3FEFBE
:101260004FE75FE7C301B2010E94671981110DC00A
:101270002FEF3FEF4FE75FE7C301B2010E94B117C5
:1012800018161CF467E373E00CC02FEF3FEF4FE735
:101290005FE4C701B6010E94001918169CF46BE3C5
:1012A00073E0CE01DF91CF91FF90EF90DF90CF9070
:1012B000BF90AF909F908F907F906F905F904F9076
:1012C0000C94B3162FEF3FEF4FE75FECC701B60169
:1012D0000E94B11787FDE3CF20E030E0A901C701EC
:1012E000B6010E94B11787FF0AC06DE2CE010E94CD
:1012F00063074C01F7FAF094F7F8F09402C0812CE0
:10130000912CA12C60E070E080E09FE3AB1441F0F1
:1013100020E030E040E251E40E94B517A394F6CFFC
:101320009B01AC01C701B6010E944D172B013C0186
:101330000E9422186B017C010E944E189B01AC0197
:10134000C301B2010E944C172B013C012AE0B701F6
:10135000A601CE010E94E2077C01E80CF91CBB202B
:1013600039F06FE373E0CE010E94B316E80EF91E68
:10137000DB2CDD2041F120E030E040E251E4C3010C
:10138000B2010E9404192B013C010E941D184B015F
:10139000AA2497FCA094BA2C2AE030E0B501A4015D
:1013A000CE010E943808E80EF91EC501B4010E9462
:1013B00050189B01AC01C301B2010E944C172B01D4
:1013C0003C01DA94D6CFC701DF91CF91FF90EF9027
:1013D000DF90CF90BF90AF909F908F907F906F9055
:1013E0005F904F9008950C940D090F931F93CF9326
:1013F000DF93EC010E940D098C01CE010E9474075D
:10140000800F911FDF91CF911F910F910895FC01E3
:1014100024853585F901E05CFF4F8081918132960A
:1014200020813181821B930B8F7399270895DC01F2
:101430001C96ED91FC911D97DF01A05CBF4F2D9193
:101440003C91119712968D919C911197281739070D
:1014500039F08D919C91E80FF91F808190E00895FB
:101460008FEF9FEF0895FC01A485B585FD01E05C39
:10147000FF4F208131813296808191812817390771
:1014800079F080819181A80FB91F8C9120813181E1
:101490002F5F3F4F2F7333273183208390E00895D0
:1014A0008FEF9FEF0895FC0181A1882329F0A48983
:1014B000B5898C9186FFFBCF11A208950F931F93DE
:1014C000CF93DF93FC01A685B7858D01005C1F4F8C
:1014D000E8018881998101968F739927AD014E5B50
:1014E0005F4FEA012881398182179307D1F3E80120
:1014F00028813981A20FB31F6C93A685B785A05CA4
:10150000BF4F11969C938E93A689B7892C9181E049
:1015100090E0078C02C0880F991F0A94E2F7822B93
:101520008C9381E081A30488F589E02D808180641B
:10153000808381E090E0DF91CF911F910F9108951A
:1015400008951F920F920FB60F9211242F934F936D
:101550005F938F939F93EF93FF938091C00082FDE1
:101560001CC02091C60080911E0490911F0401961A
:101570008F73992740912004509121048417950777
:1015800071F0E0911E04F0911F04E252FC4F2083A1
:1015900090931F0480931E0402C08091C600FF91A7
:1015A000EF919F918F915F914F912F910F900FBE6F
:1015B0000F901F90189588E793E00E94070A892BE7
:1015C00011F00C94A00A08951F920F920FB60F927B
:1015D00011242F933F938F939F93EF93FF93209129
:1015E000DA033091DB038091DC039091DD0328174F
:1015F000390731F48091C1008F7D8093C10014C000
:10160000E091DC03F091DD03E656FC4F20818091F0
:10161000DC039091DD0301968F7399279093DD038E
:101620008093DC032093C600FF91EF919F918F91EF
:101630003F912F910F900FBE0F901F9018958F9292
:101640009F92AF92BF92CF92DF92EF92FF920F9351
:101650001F93CF93DF93CDB7DEB7FC0113821282C5
:1016600088EE93E0A0E0B0E084839583A683B783FF
:1016700085E493E0918380837587648757874687E5
:10168000318B208B138B028BF58AE48AD78AC68A2A
:10169000B18EA08E938E828E8F85848F8889858F60
:1016A0008989868F8A89878F8B8980A3DF91CF91E3
:1016B0001F910F91FF90EF90DF90CF90BF90AF9070
:1016C0009F908F900895CF92DF92EF92FF920F93A9
:1016D0001F93CF93DF93EC016A017B01411581EEEB
:1016E00058076105710511F1EC89FD8981E090E0F1
:1016F00008A002C0880F991F0A94E2F7808360E077
:1017000079E08DE390E0A70196010E9424178901FA
:101710009A0101501109210931093695279517952C
:1017200007959801011580E11807A8F0EC89FD895B
:10173000108260E874E88EE190E0A70196010E94B3
:101740002417DA01C9010197A109B109B695A79536
:10175000979587959C01E889F9893083EA89FB8907
:10176000208319A2EE89FF89408181E090E09C01ED
:101770000C8C02C0220F331F0A94E2F7242B208323
:10178000EE89FF8940819C010D8C02C0220F331F1E
:101790000A94E2F7242B2083EE89FF8940819C0183
:1017A0000E8C02C0220F331F0A94E2F7242B2083F1
:1017B000EE89FF8920810F8C02C0880F991F0A943F
:1017C000E2F7809582238083DF91CF911F910F9163
:1017D000FF90EF90DF90CF900895CF92DF92EF923D
:1017E000FF921F93CF93DF93EC016A017B01122FCD
:1017F000411581EE58076105710509F1EC89FD89F4
:1018000081E090E008A002C0880F991F0A94E2F7D7
:10181000808360E079E08DE390E0A70196010E946B
:101820002417DA01C9010197A109B109B695A79555
:1018300097958795AC01411580E15807A8F0EC8990
:10184000FD89108260E874E88EE190E0A7019601BE
:101850000E942417BA01A901415051096109710977
:101860007695679557954795E889F9895083EA8970
:10187000FB894083E88DF98D1083EE89FF894081D3
:1018800081E090E09C010C8C02C0220F331F0A946F
:10189000E2F7242B2083EE89FF8940819C010D8C87
:1018A00002C0220F331F0A94E2F7242B2083EE8913
:1018B000FF8940819C010E8C02C0220F331F0A94C5
:1018C000E2F7242B2083EE89FF8920810F8C02C050
:1018D000880F991F0A94E2F7809582238083DF9115
:1018E000CF911F91FF90EF90DF90CF900895CF930D
:1018F000DF93FC0186859785EC01C05CDF4FDC013E
:10190000AE5BBF4F288139818D919C91119728172B
:101910003907C1F7A689B7893C9181E090E0AC0115
:10192000048C02C0440F551F0A94E2F7242F20951F
:1019300023232C93A689B7893C91AC01058C02C066
:10194000440F551F0A94E2F7242F209523232C934C
:10195000A689B7893C91AC01068C02C0440F551F83
:101960000A94E2F7242F209523232C93A689B78984
:101970002C91078C02C0880F991F0A94E2F780957A
:1019800082238C9384859585FC01EE5BFF4F20813B
:101990003181329731832083DF91CF91089581E0A7
:1019A00008951F920F920FB60F9211242F933F9319
:1019B0008F939F93AF93BF938091220490912304C0
:1019C000A0912404B091250430912A0423E0230F30
:1019D0002D3720F40196A11DB11D05C026E8230F67
:1019E0000296A11DB11D20932A0480932204909396
:1019F0002304A0932404B09325048091260490919D
:101A00002704A0912804B09129040196A11DB11DBD
:101A10008093260490932704A0932804B09329046C
:101A2000BF91AF919F918F913F912F910F900FBEDA
:101A30000F901F9018952FB7F89460912204709121
:101A4000230480912404909125042FBF08953FB76B
:101A5000F8948091260490912704A0912804B091D5
:101A6000290426B5A89B05C02F3F19F00196A11D9A
:101A7000B11D3FBFBA2FA92F982F8827820F911D24
:101A8000A11DB11DBC01CD0142E0660F771F881F6B
:101A9000991F4A95D1F70895CF92DF92EF92FF9266
:101AA000CF93DF936B017C010E94270DEB01C114E2
:101AB000D104E104F10479F00E94270D6C1B7D0B29
:101AC000683E7340A0F381E0C81AD108E108F1082C
:101AD000C851DC4FECCFDF91CF91FF90EF90DF90BA
:101AE000CF900895019739F0880F991F880F991F9B
:101AF00002970197F1F70895789484B5826084BDC8
:101B000084B5816084BD85B5826085BD85B5816001
:101B100085BDEEE6F0E0808181608083E1E8F0E061
:101B20001082808182608083808181608083E0E890
:101B3000F0E0808181608083E1EBF0E0808184606F
:101B40008083E0EBF0E0808181608083EAE7F0E071
:101B500080818460808380818260808380818160D5
:101B600080838081806880831092C10008958330D3
:101B700081F028F4813099F08230A1F00895863008
:101B8000A9F08730B9F08430D1F4809180008F7D46
:101B900003C0809180008F7780938000089584B582
:101BA0008F7702C084B58F7D84BD08958091B00089
:101BB0008F7703C08091B0008F7D8093B00008952F
:101BC000CF93DF9390E0FC01E458FF4F2491FC0198
:101BD000E057FF4F8491882361F190E0880F991FAF
:101BE000FC01E854FF4FC591D491FC01E255FF4F31
:101BF000A591B491611109C09FB7F894888120958F
:101C000082238883EC912E230BC0623061F49FB74E
:101C1000F8943881822F809583238883EC912E2B32
:101C20002C939FBF06C08FB7F894E8812E2B288392
:101C30008FBFDF91CF9108951F93CF93DF93282F0C
:101C400030E0F901E859FF4F8491F901E458FF4F62
:101C5000D491F901E057FF4FC491CC23C9F0162F5E
:101C600081110E94B70DEC2FF0E0EE0FFF1FE2553F
:101C7000FF4FA591B4918FB7F894111105C09C91B5
:101C8000ED2FE095E92302C0EC91ED2BEC938FBF93
:101C9000DF91CF911F910895CF93DF93282F30E0EC
:101CA000F901E859FF4F8491F901E458FF4FD491AD
:101CB000F901E057FF4FC491CC2391F081110E94AC
:101CC000B70DEC2FF0E0EE0FFF1FEC55FF4FA59185
:101CD000B491EC91ED2381E090E021F480E002C02A
:101CE00080E090E0DF91CF91089580930001089506
:101CF0008E3008F08E5087702091000190E4299F6B
:101D000090011124822B80937C0080917A00806462
:101D100080937A0080917A0086FDFCCF80917800D4
:101D20002091790090E0922B08951F93CF93DF9339
:101D3000182FEB0161E00E94E00D209711F460E0A4
:101D400004C0CF3FD10539F461E0812FDF91CF91FD
:101D50001F910C941C0EE12FF0E0E859FF4FE49125
:101D6000E330F9F048F4E130B9F0E230A1F584B5A0
:101D7000806284BDC8BD34C0E630E9F0E73019F1B7
:101D8000E43049F580918000806280938000D09398
:101D90008B00C0938A0024C084B5806884BDC7BD11
:101DA0001FC080918000806880938000D09389005C
:101DB000C093880015C08091B00080688093B00007
:101DC000C093B3000DC08091B00080628093B000DA
:101DD000C093B40005C0C038D1050CF0B5CFAFCF6B
:101DE000DF91CF911F910895FC01808191810C9426
:101DF000031ACF93DF93EC0188819981009711F04A
:101E00000E94031A198218821D821C821B821A8268
:101E1000DF91CF9108950F931F93CF93DF93EC0140
:101E20008B016F5F7F4F888199810E94921A009782
:101E300031F0998388831B830A8381E001C080E0AD
:101E4000DF91CF911F910F910895CF93DF93EC0114
:101E500088819981892B29F08A819B818617970730
:101E600060F4CE010E940B0F882341F08C819D818C
:101E7000892B19F4E881F981108281E0DF91CF91FB
:101E80000895EF92FF920F931F93CF93DF93EC018E
:101E90007B018A01BA010E94250F811104C0CE0185
:101EA0000E94F90E07C01D830C83B70188819981B8
:101EB0000E94CA1BCE01DF91CF911F910F91FF901D
:101EC000EF900895FC011182108213821282158214
:101ED000148216826115710551F0FB0101900020FA
:101EE000E9F73197AF01461B570B0C94410F08954A
:101EF000CF93DF93EC01FB018617970761F06081B8
:101F000071816115710529F0448155810E94410F4D
:101F100002C00E94F90ECE01DF91CF910895FC011D
:101F200011821082138212821582148216820C94FE
:101F3000780FCF93DF93EC016115710559F0FB0128
:101F400001900020E9F73197AF01461B570B0E9423
:101F5000410F02C00E94F90ECE01DF91CF9108958A
:101F6000CF93DF9300D0CDB7DEB7FC011182108292
:101F70001382128215821482168269831A82BE012C
:101F80006F5F7F4F0E94990F0F900F90DF91CF915D
:101F900008950F931F93CF93DF93CDB7DEB72997A3
:101FA0000FB6F894DEBF0FBECDBF8C01862FF801AF
:101FB000118210821382128215821482168250E0DE
:101FC000BE016F5F7F4F90E00E94A21CBE016F5F59
:101FD0007F4FC8010E94990F29960FB6F894DEBF73
:101FE0000FBECDBFDF91CF911F910F9108950F9339
:101FF0001F93CF93DF93CDB7DEB762970FB6F894F8
:10200000DEBF0FBECDBF8C01CB01F8011182108263
:102010001382128215821482168250E0BE016F5F15
:102020007F4F0E94131CBE016F5F7F4FC8010E944B
:10203000990F62960FB6F894DEBF0FBECDBFDF9149
:10204000CF911F910F9108950F931F93CF93DF931B
:10205000CDB7DEB761970FB6F894DEBF0FBECDBF28
:102060008C01CB01F8011182108213821282158239
:102070001482168250E0BE016F5F7F4F0E94A21C47
:10208000BE016F5F7F4FC8010E94990F61960FB626
:10209000F894DEBF0FBECDBFDF91CF911F910F919E
:1020A00008950F931F93CF93DF93CDB7DEB7A29719
:1020B0000FB6F894DEBF0FBECDBF8C01CB01BA01C5
:1020C000F801118210821382128215821482168204
:1020D00030E0AE014F5F5F4F0E94341CBE016F5F66
:1020E0007F4FC8010E94990FA2960FB6F894DEBFE9
:1020F0000FBECDBFDF91CF911F910F9108950F9328
:102100001F93CF93DF93CDB7DEB7A1970FB6F894A7
:10211000DEBF0FBECDBF8C01CB01BA01F801118229
:1021200010821382128215821482168230E0AE0170
:102130004F5F5F4F0E947D1CBE016F5F7F4FC801E4
:102140000E94990FA1960FB6F894DEBF0FBECDBFC7
:10215000DF91CF911F910F910895EF92FF920F930E
:102160001F93CF93DF93FC012481358161157105A5
:1021700011F480E019C041155105A9F07B01EC0173
:102180008A01020F131FB8010E94250F882389F3CB
:10219000288139818C819D81B701820F931F0E9414
:1021A000CA1B1D830C8381E0DF91CF911F910F919A
:1021B000FF90EF900895FB0144815581608171810A
:1021C0000C94AD106115710551F0FB0101900020D8
:1021D000E9F73197AF01461B570B0C94AD1080E027
:1021E0000895CF93DF9300D0CDB7DEB769831A820D
:1021F00041E050E0BE016F5F7F4F0E94AD100F9035
:102200000F90DF91CF910895EF92FF920F931F935C
:10221000CF93DF9300D000D0CDB7DEB77C01862FFF
:102220004AE050E08E010F5F1F4FB80190E00E941E
:10223000131CF80101900020E9F73197AF01401B12
:10224000510BB801C7010E94AD100F900F900F9075
:102250000F90DF91CF911F910F91FF90EF90089514
:10226000EF92FF920F931F93CF93DF93CDB7DEB71B
:1022700027970FB6F894DEBF0FBECDBF7C01CB0110
:102280004AE050E08E010F5F1F4FB8010E94131CFF
:10229000F80101900020E9F73197AF01401B510B85
:1022A000B801C7010E94AD1027960FB6F894DEBFA3
:1022B0000FBECDBFDF91CF911F910F91FF90EF9097
:1022C0000895EF92FF920F931F93CF93DF9300D067
:1022D00000D000D0CDB7DEB77C01CB014AE050E0A2
:1022E0008E010F5F1F4FB8010E94A21CF8010190E0
:1022F0000020E9F73197AF01401B510BB801C7012E
:102300000E94AD1026960FB6F894DEBF0FBECDBF6B
:10231000DF91CF911F910F91FF90EF900895EF9271
:10232000FF920F931F93CF93DF93CDB7DEB72C9718
:102330000FB6F894DEBF0FBECDBF7C01CB01BA0152
:102340002AE030E08E010F5F1F4FA8010E94341C6D
:10235000F80101900020E9F73197AF01401B510BC4
:10236000B801C7010E94AD102C960FB6F894DEBFDD
:102370000FBECDBFDF91CF911F910F91FF90EF90D6
:102380000895EF92FF920F931F93CF93DF93CDB7F2
:10239000DEB72B970FB6F894DEBF0FBECDBF7C0122
:1023A000CB01BA012AE030E08E010F5F1F4FA80178
:1023B0000E947D1CF80101900020E9F73197AF01E0
:1023C000401B510BB801C7010E94AD102B960FB6F0
:1023D000F894DEBF0FBECDBFDF91CF911F910F915B
:1023E000FF90EF900895CF93DF93EC01FB014481C0
:1023F0005581608171810E94AD10811103C0CE01B1
:102400000E94F90ECE01DF91CF910895CF93DF9313
:10241000EC016115710561F0FB0101900020E9F705
:102420003197AF01461B570B0E94AD10811103C0BD
:10243000CE010E94F90ECE01DF91CF910895CF9386
:10244000DF93EC010E94F110811103C0CE010E94C4
:10245000F90ECE01DF91CF910895CF93DF93EC0178
:102460000E940411811103C0CE010E94F90ECE0119
:10247000DF91CF910895CF93DF93EC010E9430114B
:10248000811103C0CE010E94F90ECE01DF91CF91E0
:102490000895CF93DF93EC010E946111811103C075
:1024A000CE010E94F90ECE01DF91CF910895CF9316
:1024B000DF93EC010E948F11811103C0CE010E94B5
:1024C000F90ECE01DF91CF910895CF93DF93EC0108
:1024D0000E94C111811103C0CE010E94F90ECE01EC
:1024E000DF91CF910895CF93DF93DC01ED91FC91C3
:1024F000EB01A881B981309711F01097C9F41097BA
:1025000059F0EB012C813D81232B31F08C9190E02F
:1025100091958195910914C0309781F0DC01149652
:102520008D919C911597892B49F0808190E008C08E
:10253000BD01CF01DF91CF910C94C11B80E090E0F1
:10254000DF91CF910895FC0144815581FB012481E5
:1025500035814217530729F40E94731221E0892B19
:1025600009F020E0822F0895FC0124813581232B7E
:1025700031F421E061157105A1F0FB0108C0FC01F7
:10258000808191816115710531F421E0FC01808128
:10259000882339F005C00E94C11B21E0892B09F076
:1025A00020E0822F08950E947312892F881F8827A8
:1025B000881F08950E94731221E0181619060CF066
:1025C00020E0822F08950E94731221E01816190648
:1025D0000CF420E0822F08950E947312892F8095B9
:1025E000881F8827881F0895EF92FF920F931F93EB
:1025F000CF93DF938617970729F1FC01248135815A
:10260000FB014481558124173507F1F4232BD1F0C8
:10261000DC01CD91DC91008111818991882391F0B9
:10262000992787FD90950E948B1B7C01F801819171
:102630008F01992787FD90950E948B1BE816F9065C
:1026400061F302C081E001C080E0DF91CF911F9172
:102650000F91FF90EF900895DB011496ED91FC919E
:102660001597DC0114962D913C9115972E1B3F0B6D
:1026700024173507A0F02D913C912115310579F0F3
:10268000DB016D917C916115710549F0CA01AF01C3
:10269000820F931F0E94D11B21E0892B09F020E0BB
:1026A000822F0895FC0144815581FB0124813581ED
:1026B0004217530720F040E050E00C942C1380E0C8
:1026C0000895FC0124813581FB0144815581241743
:1026D0003507A0F0FC0180819181009779F0FB0122
:1026E000608171816115710549F0241B350B820FE2
:1026F000931F0E94C11B21E0892B09F020E0822F4B
:102700000895FC01248135816217730730F48081BC
:102710009181FC01E60FF71F40830895FC0124819D
:1027200035816217730720F480819181009729F425
:1027300010922B048BE294E00895860F971F089562
:10274000FC01248135816217730748F480819181EF
:10275000009729F0FC01E60FF71F8081089580E0C3
:1027600008950C94A0130F931F93CF93DF934115FB
:10277000510519F16115710501F1DC011496ED9116
:10278000FC9115972E173F0718F0FB01108215C01A
:10279000E21BF30BEA012197EC17FD0708F4EF01A8
:1027A0008B01FC0160817181620F731FAE01C80152
:1027B0000E94DF1BC00FD11F1882DF91CF911F91A4
:1027C0000F910895CF93DF93FC0124813581421747
:1027D000530778F4C081D181772767FD7095CE01CA
:1027E000840F951F0E94B61B009719F08C1B9D0B40
:1027F00002C08FEF9FEFDF91CF91089540E050E04E
:102800000C94E213CF93DF93FC01248135814217AE
:10281000530780F4FB01DC01CD91DC916081718173
:10282000CE01840F951F0E94F91B009719F08C1B95
:102830009D0B02C08FEF9FEFDF91CF91089540E095
:1028400050E00C940214DF92EF92FF920F931F93CB
:10285000CF93DF93DC0114962D913C91159742178D
:10286000530718F08FEF9FEF1DC08C01EA012196EE
:10287000DC01ED91FC911197EC0FFD1FD0801082CF
:10288000ED90FC90772767FD7095C7010E94EE1BC5
:10289000CE0DDF1DD882009729F3F8012081318108
:1028A000821B930BDF91CF911F910F91FF90EF90BF
:1028B000DF900895FC0144815581415051090C94E9
:1028C0002314AF92BF92CF92DF92EF92FF920F93B9
:1028D0001F93CF93DF937B018A01FB0144815581D4
:1028E0004115510561F1FC01248135812115310526
:1028F00031F12417350718F10217130718F0890171
:1029000001501109FC01A080B180C501DFEFCFEFBC
:102910006501C00ED11EC816D906A0F0F70160816E
:1029200071810E94F91B009769F09C012A193B09EB
:102930000217130710F0D22FC32F0196ECCF8FEFA1
:102940009FEF02C08D2F9C2FDF91CF911F910F9190
:10295000FF90EF90DF90CF90BF90AF900895FC0173
:1029600044815581FB0124813581421B530B0C941A
:102970006114BF92CF92DF92EF92FF920F931F9359
:10298000CF93DF937C016B018A01E901241735079E
:1029900020F4812F8901C42FD82F66E571E0C7018B
:1029A0000E94620FD60114968D919C911597801705
:1029B0009107D0F08C179D0708F4EC01D601ED913A
:1029C000FC911197EC0FFD1FB08010824D915C912E
:1029D000BA01600F711FC7010E94990FD601ED91D6
:1029E000FC91EC0FFD1FB082C701DF91CF911F91C9
:1029F0000F91FF90EF90DF90CF90BF900895CF930D
:102A0000DF93EC01FB01248135810E94B914CE01D2
:102A1000DF91CF910895DC01ED91FC91309729F47D
:102A20000895861301C04083319680818111F9CFCA
:102A300008952F923F924F925F926F927F928F9262
:102A40009F92AF92BF92CF92DF92EF92FF920F933D
:102A50001F93CF93DF93FC014480558041145104B0
:102A600009F4D2C0FB01648075806114710409F41B
:102A7000CBC07A016B018C01FA01A480B580A61845
:102A8000B708FC01C081D181A114B104C1F4F601E1
:102A900060817181CE010E94F91BEC01009709F45D
:102AA000B3C0F7016081718144815581CE010E94DC
:102AB0009B1BF70184819581C80FD91FE8CFB7FE12
:102AC00002C04E0105C0FB0120803180420143C09D
:102AD000F60160817181C4010E94F91B2C010097ED
:102AE00021F1320168187908A301B401CE010E94D6
:102AF0009B1BC60DD71DF7016081718144815581F3
:102B0000CE010E949B1BF70184819581C80FD91FBC
:102B1000F60184809580840C951CF8018481958150
:102B20008A0D9B1D95838483D3CFB401CE01DF91A1
:102B3000CF911F910F91FF90EF90DF90CF90BF90BA
:102B4000AF909F908F907F906F905F904F903F904D
:102B50002F900C94CA1BB101CE010E94F91B009763
:102B600031F0EC01C60DD71D8A0C9B1CF4CF8414E8
:102B7000950409F449C0F80182819381881599056B
:102B800030F4B401C8010E940B0F8823E9F1F80169
:102B9000448155814150510957FD36C0B601C801E5
:102BA0000E946114EC0197FD2FC0F8018081918192
:102BB000F601248135812C0F3D1F820F931FF801F0
:102BC00044815581421B530BBC018A0D9B1D0E9401
:102BD000A41BF801848195818A0D9B1D95838483B4
:102BE00020813181F901E80FF91F1082F8018081FD
:102BF0009181F70160817181448155818C0F9D1F06
:102C00000E949B1BAE01C6CFDF91CF911F910F9108
:102C1000FF90EF90DF90CF90BF90AF909F908F90FC
:102C20007F906F905F904F903F902F900895CF933B
:102C3000DF93FC01C081D181209751F088818823E6
:102C400039F0992787FD90950E948B1B8993F6CFC9
:102C5000DF91CF910895CF93DF93FC01C081D181A3
:102C6000209751F08881882339F0992787FD909526
:102C70000E94931B8993F6CFDF91CF910895AF9275
:102C8000BF92CF92DF92EF92FF920F931F93CF9359
:102C9000DF93DC01CD90DC901197C114D10409F4CD
:102CA00042C01496CD91DC9115972097E1F18C01EB
:102CB00056017501BFEFAB1ABB0AF7018081992756
:102CC00087FD90950E94831B892B99F72197CC0D46
:102CD000DD1D8881992787FD90950E94831B892B94
:102CE00091F4AE014F5F5F4F4E195F09D801159601
:102CF0005C934E931497CE14DF0450F4B701C601D1
:102D00000E949B1B05C0CE15DF0558F32197E1CF2C
:102D1000D801ED91FC91119714968D919C91159786
:102D2000E80FF91F1082DF91CF911F910F91FF9053
:102D3000EF90DF90CF90BF90AF900895FC0180811D
:102D40009181009711F00C945C1B60E070E0CB0166
:102D500008956DE084E793E00C9420066DE086E72B
:102D600093E00C9420066115710579F0FB01019048
:102D70000020E9F73197AF01461B570BDC01ED91BD
:102D8000FC910280F381E02D099480E090E00895A9
:102D90000E947C0D0E948E00CBEDDAE00E940402BE
:102DA0002097E1F30E94DB0AF9CFE8E7F3E0138212
:102DB000128288EE93E0A0E0B0E084839583A6833E
:102DC000B78385E493E0918380838EED93E09587CC
:102DD00084878AE993E09787868785EC90E0918BDA
:102DE000808B84EC90E0938B828B80EC90E0958BD1
:102DF000848B81EC90E0978B868B82EC90E0918FB6
:102E0000808F86EC90E0938F828F84E0848F83E0C4
:102E1000858F87E0868F85E0878F81E080A3089586
:102E2000AA1BBB1B51E107C0AA1FBB1FA617B707F0
:102E300010F0A61BB70B881F991F5A95A9F780950C
:102E40009095BC01CD010895A1E21A2EAA1BBB1BCF
:102E5000FD010DC0AA1FBB1FEE1FFF1FA217B30766
:102E6000E407F50720F0A21BB30BE40BF50B661F7C
:102E7000771F881F991F1A9469F760957095809540
:102E800090959B01AC01BD01CF010895EE0FFF1F8E
:102E90000590F491E02D09945058BB27AA270ED035
:102EA00075C166D130F06BD120F031F49F3F11F441
:102EB0001EF45BC10EF4E095E7FB51C1E92F77D119
:102EC00080F3BA17620773078407950718F071F447
:102ED0009EF58FC10EF4E0950B2EBA2FA02D0B019D
:102EE000B90190010C01CA01A0011124FF27591B4F
:102EF00099F0593F50F4503E68F11A16F040A22F55
:102F0000232F342F4427585FF3CF469537952795C5
:102F1000A795F0405395C9F77EF41F16BA0B620BC4
:102F2000730B840BBAF09150A1F0FF0FBB1F661F0B
:102F3000771F881FC2F70EC0BA0F621F731F841F4E
:102F400048F4879577956795B795F7959E3F08F074
:102F5000B3CF9395880F08F09927EE0F9795879533
:102F60000895D9D008F481E008950CD00FC107D19D
:102F700040F0FED030F021F45F3F19F0F0C0511165
:102F800039C1F3C014D198F39923C9F35523B1F390
:102F9000951B550BBB27AA2762177307840738F0C8
:102FA0009F5F5F4F220F331F441FAA1FA9F333D027
:102FB0000E2E3AF0E0E830D091505040E695001CDB
:102FC000CAF729D0FE2F27D0660F771F881FBB1F97
:102FD000261737074807AB07B0E809F0BB0B802D71
:102FE000BF01FF2793585F4F2AF09E3F510568F0BD
:102FF000B6C000C15F3FECF3983EDCF38695779551
:103000006795B795F7959F5FC9F7880F911D9695BE
:10301000879597F90895E1E0660F771F881FBB1F1A
:10302000621773078407BA0720F0621B730B840BC7
:10303000BA0BEE1F88F7E095089504D06894B1119B
:10304000D9C00895BCD088F09F5790F0B92F992728
:10305000B751A0F0D1F0660F771F881F991F1AF0A3
:10306000BA95C9F712C0B13081F0C3D0B1E008956C
:10307000C0C0672F782F8827B85F39F0B93FCCF3ED
:10308000869577956795B395D9F73EF49095809599
:10309000709561957F4F8F4F9F4F0895E89409C0B9
:1030A00097FB3EF490958095709561957F4F8F4F7B
:1030B0009F4F9923A9F0F92F96E9BB279395F69591
:1030C000879577956795B795F111F8CFFAF4BB0F0F
:1030D00011F460FF1BC06F5F7F4F8F4F9F4F16C073
:1030E000882311F096E911C0772321F09EE8872FFD
:1030F000762F05C0662371F096E8862F70E060E0B9
:103100002AF09A95660F771F881FDAF7880F969531
:10311000879597F90895990F0008550FAA0BE0E8D5
:10312000FEEF16161706E807F907C0F01216130689
:10313000E407F50798F0621B730B840B950B39F4C9
:103140000A2661F0232B242B252B21F408950A262F
:1031500009F4A140A6958FEF811D811D089597F96F
:103160009F6780E870E060E008959FEF80EC08952D
:1031700000240A9416161706180609060895002456
:103180000A9412161306140605060895092E0394D0
:10319000000C11F4882352F0BB0F40F4BF2B11F444
:1031A00060FF04C06F5F7F4F8F4F9F4F089557FDA3
:1031B0009058440F551F59F05F3F71F04795880FA5
:1031C00097FB991F61F09F3F79F08795089512163C
:1031D00013061406551FF2CF4695F1DF08C01616E8
:1031E00017061806991FF1CF869571056105089499
:1031F0000895E894BB2766277727CB0197F90895B0
:103200008ADF08F48FEF08950BD0C0CFB1DF28F02C
:10321000B6DF18F0952309F0A2CFA7CF1124EACF8B
:10322000C6DFA0F3959FD1F3950F50E0551F629F25
:10323000F001729FBB27F00DB11D639FAA27F00D0F
:10324000B11DAA1F649F6627B00DA11D661F829F36
:103250002227B00DA11D621F739FB00DA11D621F1B
:10326000839FA00D611D221F749F3327A00D611D38
:10327000231F849F600D211D822F762F6A2F11241A
:103280009F5750408AF0E1F088234AF0EE0FFF1F6D
:10329000BB1F661F771F881F91505040A9F79E3FA4
:1032A000510570F05CCFA6CF5F3FECF3983EDCF3A6
:1032B000869577956795B795F795E7959F5FC1F7E1
:1032C000FE2B880F911D9695879597F9089523DF1A
:1032D000880B990B0895CF93DF938230910510F4FA
:1032E00082E090E0E0912E04F0912F0420E030E0A5
:1032F000A0E0B0E0309739F140815181481759077B
:10330000B8F04817590771F482819381109729F01A
:1033100013969C938E9312972CC090932F048093B6
:103320002E0427C02115310531F04217530718F03C
:10333000A901DB0101C0EF019A01BD01DF0102809B
:10334000F381E02DD7CF21153105F9F0281B390B7A
:103350002430310580F48A819B816115710521F04B
:10336000FB019383828304C090932F0480932E04E7
:10337000FE01329644C0FE01E20FF31F8193919348
:1033800022503109398328833AC020912C0430918E
:103390002D04232B41F4209103013091040130933B
:1033A0002D0420932C04209101013091020121155C
:1033B000310541F42DB73EB740910501509106010A
:1033C000241B350BE0912C04F0912D04E217F30738
:1033D000A0F42E1B3F0B2817390778F0AC014E5F85
:1033E0005F4F2417350748F04E0F5F1F50932D0491
:1033F00040932C048193919302C0E0E0F0E0CF0170
:10340000DF91CF910895CF93DF93009709F487C0A0
:10341000FC01329713821282C0912E04D0912F04A6
:10342000209781F420813181280F391F80912C044D
:1034300090912D048217930779F5F0932D04E09372
:103440002C046DC0DE0120E030E0AE17BF0750F461
:1034500012964D915C9113979D014115510509F10B
:10346000DA01F3CFB383A28340815181840F951F8A
:103470008A179B0771F48D919C911197840F951F6A
:1034800002969183808312968D919C9113979383DA
:1034900082832115310529F4F0932F04E0932E0443
:1034A0003EC0D9011396FC93EE9312974D915D9116
:1034B000A40FB51FEA17FB0779F480819181840F6F
:1034C000951F0296D90111969C938E9382819381C8
:1034D00013969C938E931297E0E0F0E08A819B8193
:1034E000009719F0FE01EC01F9CFCE010296288178
:1034F0003981820F931F20912C0430912D042817BD
:10350000390769F4309729F410922F0410922E0491
:1035100002C013821282D0932D04C0932C04DF9139
:10352000CF910895A0E0B0E0E8E9FAE10C94CF1C57
:10353000EC01CB01209719F40E946B19B8C0FE0171
:10354000E60FF71F9E0122503109E217F30708F436
:10355000ACC0D9010D911C91119706171707B8F04F
:103560000530110508F49FC0A801445051094617C1
:10357000570708F498C002501109061B170B019356
:1035800011936D937C93CF010E94031A8CC05B0151
:10359000A01AB10A4E01800E911EA0912E04B09186
:1035A0002F04612C712C60E070E0109709F449C081
:1035B000A815B905C9F5ED90FC901197670142E097
:1035C000C40ED11CCA14DB0478F147018A189B0889
:1035D000640142E0C40ED11C1296BC90129713965F
:1035E000AC91B5E0CB16D10440F0B282A3839182B6
:1035F0008082D9018D939C9309C00E5F1F4F0E0DE1
:103600001F1DF90111830083EB2DFA2F6115710540
:1036100031F0DB011396FC93EE93129744C0F093C4
:103620002F04E0932E043FC06D917C911197661694
:10363000770608F43B01BD0112960D90BC91A02DB8
:10364000B4CF60912C0470912D0468157905E9F4CC
:1036500068167906D0F4409101015091020141159C
:10366000510541F44DB75EB76091050170910601B7
:10367000461B570BE417F507C0F4F0932D04E093B5
:103680002C04F901918380830EC00E946B197C0188
:10369000009759F0A801BE010E949B1BCE010E9419
:1036A000031AC70104C0CE0102C080E090E0CDB78C
:1036B000DEB7EEE00C94EB1C1F93FC0199278827E2
:1036C000BC01E89411911032E9F3193010F01E306A
:1036D000C8F31B3251F01D3249F4689406C00E94B1
:1036E000681C610F711D811D911D119110531A30BD
:1036F000B0F33EF490958095709561957F4F8F4F14
:103700009F4F1F910895911133C1803219F0895054
:103710008550D0F708959111089581548A5108F485
:10372000805E855A08959111089581568A5108F452
:10373000805285580895FB01DC0102C001900D9272
:1037400041505040D8F708956817790768F4FB0195
:10375000DC01E40FF51FA40FB51F02C002900E920A
:1037600041505040D8F708950C949B1BFC01819167
:10377000861721F08823D9F7992708953197CF012B
:103780000895FB01DC018D91019080190110D9F39E
:10379000990B0895FB01DC0101900D920020E1F7E7
:1037A0000895FB01DC014150504030F08D910190B3
:1037B000801919F40020B9F7881B990B0895FB01B3
:1037C000DC014150504048F001900D920020C9F7B3
:1037D00001C01D9241505040E0F70895FC0181E086
:1037E00090E00190061609F4CF010020D1F701976F
:1037F0000895FB0151915523A9F0BF01DC014D91C2
:1038000045174111E1F759F4CD010190002049F02D
:103810004D9140154111C9F3FB014111EFCF81E0FA
:1038200090E001970895FB019F01E8944230C4F0B5
:103830004532B4F44A3029F497FB1EF490958195F3
:103840009F4F642F77270E941017805D8A330CF0FA
:10385000895D8193CB010097A1F716F45DE2519346
:103860001082C9010C94BB1CFA01CF93FF93EF9314
:10387000223044F1253234F5C22FE894CA3049F49D
:1038800097FB3EF490958095709561957F4F8F4F93
:103890009F4F2C2F332744275527FF93EF930E94E8
:1038A0002417EF91FF91605D6A330CF0695D6193BD
:1038B000B901CA01605070408040904051F716F441
:1038C000CDE2C19310828F919F91CF910C94BB1C3C
:1038D000592F482F372F262F660F771F881F991FC4
:1038E000660F771F881F991F620F731F841F951F14
:1038F000660F771F881F991F0895FA01CF93FF93D2
:10390000EF932230CCF02532BCF4C22F2C2F33277A
:1039100044275527FF93EF930E942417EF91FF91BF
:10392000605D6A330CF0695D6193B901CA01605052
:1039300070408040904051F710828F919F91CF91BD
:103940000C94BB1CFB019F01423074F0453264F4BF
:10395000642F77270E941017805D8A330CF0895DF1
:103960008193CB010097A1F71082C9010C94BB1C75
:10397000992788270895DC01FC01672F719177232F
:10398000E1F7329704C07C916D9370836291AE171A
:10399000BF07C8F308952F923F924F925F926F92A4
:1039A0007F928F929F92AF92BF92CF92DF92EF92CF
:1039B000FF920F931F93CF93DF93CDB7DEB7CA1B50
:1039C000DB0B0FB6F894DEBF0FBECDBF09942A887B
:1039D000398848885F846E847D848C849B84AA8423
:1039E000B984C884DF80EE80FD800C811B81AA81B0
:1039F000B981CE0FD11D0FB6F894DEBF0FBECDBF7B
:083A0000ED010895F894FFCFD9
:103A08000100003004200041726475696E6F204225
:103A18006F61726420546573742056312E303800FB
:103A2800596F75724475696E6F2E636F6D2074657A
:103A380072727940796F75726475696E6F2E636FF3
:103A48006D0050494E2D004641494C202020002D44
:103A58004F4B2D202020002D2D2D20544553542030
:103A68005354415254202D2D2D0054455354203089
:103A78003031202D20416E7920737475636B20706E
:103A8800696E733F3F00566F6C74735265616420B2
:103A98003D200020202D2D204F4B210020202A2AB8
:103AA80020535455434B204F52204C45414B5920ED
:103AB80050494E204641494C202A2A20005445535B
:103AC8005420303032202D204469676974616C209D
:103AD80050696E7320536F757263652043757272F7
:103AE800656E74005445535420303033202D2044E3
:103AF80069676974616C2050696E732053696E6BD5
:103B08002043757272656E740054455354203030EA
:103B180034202D20416E616C6F672050696E7320D0
:103B2800536F757263652043757272656E740054C5
:103B380045535420303035202D20416E616C6F671D
:103B48002050696E732053696E6B204375727265DD
:103B58006E74005445535420303036202D20416E69
:103B6800616C6F672050696E7320413020746F203C
:103B780041353A204120746F2044202841626F75F6
:103B88007420322E353020562900544553542030A5
:103B98003037202D20416E616C6F672050696E733D
:103BA80020413020746F2041353A204120746F2025
:103BB80044202841626F757420332E3333205629F0
:103BC800005445535420303038202D20416E616C0C
:103BD8006F672050696E7320413020746F20413523
:103BE8003A204120746F2044202841626F75742068
:103BF800312E3636205629005445535420434F4D14
:103C0800504C4554450021212121212121212121E8
:103C1800202054484552452057455245200020460B
:103C280041494C555245532021212121212121214F
:103C38002121006E616E00696E66006F7666002E47
:103C480000000000005E0AE106070A330A170A535B
:023C58000A0060
:00000001FF
